:020000040800F2
:1000000078050020350100083D0100083F01000887
:1000100041010008430100084501000800000000FC
:100020000000000000000000000000004701000880
:1000300049010008000000004B010008ED15000810
:100040004F0100084F0100084F0100084F01000850
:100050004F0100084F0100084F0100084F01000840
:100060004F0100084F0100084F0100084F01000830
:100070004F0100084F0100084F0100084F01000820
:100080004F0100084F0100084F0100080000000068
:100090000000000000000000000000004F01000808
:1000A0004F0100084F0100084F0100084F010008F0
:1000B0004F0100084F0100084F01000829120008F5
:1000C0001D1200084F0100084F0100084F010008F1
:1000D0004F0100084F0100084F0100084F010008C0
:1000E0004F0100084F0100084F0100080000000008
:1000F0000000000000000000000000000000000000
:1001000000000000000000000000000000000000EF
:1001100000000000000000004F0100084F0100082F
:10012000DFF80CD000F018F800480047BD160008B2
:10013000780500200648804706480047FEE7FEE7AE
:10014000FEE7FEE7FEE7FEE7FEE7FEE7FEE7FEE787
:100150005116000821010008064C074D06E0E06832
:1001600040F0010394E8070098471034AC42F6D3FE
:10017000FFF7DAFFA8170008C817000831B500F02C
:10018000E7F8044600F0E4F80099001B8842F9D330
:1001900038BD00002DE9F84FDFF890A100220AF1E8
:1001A000040B144601274FF00F090BF1040E00BF9A
:1001B0000B6807FA04F52B40AB4274D1DFF870C12D
:1001C0004E68A6EB0C0866452BD00DDC032E34D010
:1001D00005DC36B3012E19D0022E2FD11BE0112ED3
:1001E00016D0122E2AD119E0B8F5881F19D006DCD6
:1001F000B8F5803F15D0B8F5801F1FD111E0B8F5D4
:10020000001F0ED0B8F5041F18D10AE0CA6815E027
:10021000CA68121D12E0CA6808320FE0CA680C32C0
:100220000CE08A682AB1012A4FF0080203D0456128
:1002300004E0042202E0056100E00022FF2B01D867
:10024000064601E000F104064FEA840501D9A5F154
:100250002005D6F800C009FA05F82CEA080C02FAC5
:1002600005F54CEA050CC6F800C04D68ED0057D501
:10027000304DAE6946F00106AE61AD6924F003066B
:1002800005F0010500952C4D06EB050CDCF8085037
:10029000A6074FEA167809FA08F6B543274EB0428A
:1002A00002D1002610E03BE0254EB04201D10126EC
:1002B0000AE0244EB04201D1022605E0224EB042AF
:1002C00001D1032600E0042606FA08F62E43CCF8F6
:1002D00008604D68DAF80060ED03554601D51E430D
:1002E00000E09E432E604D68DBF80060AD035D4684
:1002F00001D51E4300E09E432E604D68DEF800608D
:10030000ED02754601D51E4300E09E432E604D6808
:10031000AD020E4D2E6801D51E4300E09E432E60B7
:10032000641C102CFFF444AFBDE8F88F00040140BA
:1003300000001110001002400000014000080140C0
:10034000000C014000100140001401400C04014069
:100350000148006870470000A000002070B5044606
:10036000006841694268C1F30021C2F3002269B10B
:1003700062B1A16B41F00101A163416921F4807177
:1003800041612068016841F40041016020684169D1
:100390004268C1F34021C2F3002241B13AB1A16BDE
:1003A00041F00201A163416921F4007141612168BA
:1003B00048694A68C0F38020C2F30022012590B149
:1003C0008AB18869638D00F0010094F835201843E4
:1003D00001D1122A26D0A06B40F00400A063486926
:1003E00020F480604861206841694268C1F3C021FF
:1003F000C2F3002241B13AB1A16B41F00801A163FF
:10040000416921F400614161A06B002809D084F8A2
:1004100035502068016821F400610160204600F039
:10042000E0F870BD4A68204622F4E0624A60216824
:100430004A6922F480624A6121680A6822F4806273
:100440000A6084F8355000F02CFACCE7F8B5016862
:100450008A69D243D3074FF0010213D04B69C3F32B
:1004600040064B684C69C3F34023C4F300158C6904
:10047000002EC4F3800467D0002B65D048698869DA
:100480000090F8BD8B69DB435B0742D44B69C3F333
:10049000C0144B68C3F380254B694E68C3F38003D7
:1004A000C6F340260CB105B163B1002BE9D0002E94
:1004B000E7D0438DC3B1416A4A1C426202680978A1
:1004C00011618AE0416A4A1C42620268097811613E
:1004D000418D491E4185418D0029D2D10068416876
:1004E00021F480614160F8BD4B6823F4E0634B6008
:1004F00001680B6843F400730B6090F8351080F8C6
:100500003520322902D000F0E0F8F8BD00F095F96E
:10051000F8BD4A69C2F380134A68C2F380244A696D
:100520004968C2F38002C1F340210BB104B13AB172
:10053000002AEDD00029EBD0BDE8F84000F07ABEEB
:10054000BDE8F84000F0B6BEADB1A3B14B6823F4EE
:10055000E0634B6001684B690B6843F001030B607B
:10056000009301680B6823F480630B6080F83520EA
:1005700000F096F9F8BD4A69ACB1C2F3C0144A68FC
:10058000C2F380234A694968C2F38002C1F3402163
:100590000CB103B11AB1002AECD00029EAD0418D88
:1005A000002988D1F8BDC2F380144A68C2F38025BF
:1005B0004A694B68C2F38002C3F340230CB105B112
:1005C0001AB1002AEED0002BECD0428D002AE9D0DF
:1005D0000A69416A4B1C43620A70418D491E41857C
:1005E000F8BD704790F835007047000070B5040002
:1005F00004D094F83500002510B106E0012070BD4C
:1006000084F83450204600F019F9022084F83500AF
:100610002068016821F00101016000F061FA0146E3
:1006200027482268B1FBF0F05060264A6368934285
:1006300006D94FF4967358434FF47A73B0FBF3F036
:100640002368401C186260680123904208D840006B
:10065000B1FBF0F0C0F30B01042916D2042014E022
:10066000A26852B100EBC00202EB0010B1FBF0F047
:1006700040F44040010507D007E000EB4000B1FB2B
:10068000F0F040F40040F5E718462168C861D4E96D
:100690000701084321680860D4E903100843216872
:1006A0008860D4E9050108432168C86020680168B2
:1006B00041F001010160A56384F83530002070BD70
:1006C00040420F00A0860100704770472DE9F843B3
:1006D000044690F835001E461746884601285DD12D
:1006E0004FB146B142F2107301222D49204600F06D
:1006F000ABFEE0BB02E00120BDE8F88394F83400D3
:1007000001284BD0012084F834002068016821F4CE
:1007100000610160222084F835000025A56367622E
:100720002685668523224146204600F0F5FD30B13E
:10073000A06B84F834500428DDD00320DCE7608D02
:10074000012815D0608D0228206801681ED041F470
:1007500080610160206841698069009084F83450AC
:100760002068416841F4E06141600020C4E715E081
:100770002068016821F48061016020684169816915
:100780000091016841F400710160E7E721F48061A4
:1007900001602068016841F40061DAE70220ABE7FC
:1007A000020010002DE9F843044690F835001E467B
:1007B0001746884601283BD14FB146B142F210732B
:1007C00001221C49204600F03FFE80BB02E00120D0
:1007D000BDE8F88394F83400012829D0012084F87A
:1007E00034002068016821F400610160122084F85F
:1007F00035000025A563676226856685232241466C
:10080000204600F0E7FD30B1A06B84F83450042896
:10081000DDD00320DCE7206841698169009184F81C
:100820003450416841F4E06141600020D0E7FFE7C7
:100830000220CDE7020010007047704700B5006845
:10084000144985B0884222D1C02000901220019026
:100850000320039069461048FFF79CFC0F48C169CC
:1008600041F40011C161C069002200F4001004903D
:1008700001211F2000F064F81F2000F055F800222D
:100880000221202000F05CF8202000F04DF805B097
:1008900000BD000000540040000C01400010024068
:1008A0007047704702480168491C016070470000AA
:1008B000A000002010B5032000F062F8002000F036
:1008C00004F800F013F8002010BD10B5044600F045
:1008D000EDF84FF47A71B0FBF1F000F087FC0022E4
:1008E0002146501E00F02CF8002010BD0C4808B521
:1008F000816941F001018161806900F0010000908F
:10090000032000F03DF800221146501E00F018F8B8
:100910000448416821F0E06141F00071416008BD88
:10092000001002400000014000F01F020121914030
:100930004009800000F1E020C0F80011704700007D
:10094000F0B40E4B1B680C46C3F30223C3F107053A
:10095000042D00D90425191D072901D2002300E028
:10096000DB1E012606FA05F1491E214099409E40F2
:10097000761E16403143F0BC00F028BE0CED00E0BE
:10098000064900F0070208684FF6FF03184040EAE6
:100990000220034A10430860704700000CED00E09D
:1009A0000000FA052DE9F041054600783E4C80072D
:1009B00005D56068A96820F0F000084360602878D9
:1009C000C00758D069680120012903D0022921D02D
:1009D000022321E04FF400331EE000BF93FAA3F39B
:1009E000B3FA83F303F01F039840024202D10120BF
:1009F000BDE8F081606820F0030008436060FFF705
:100A0000A7FC0746686841F28836012815D00228FD
:100A10001FD02CE04FF0007393FAA3F2B2FA82F2E7
:100A200042F02002520901D02268D7E7626AD5E776
:100A3000FFF78EFCC01BB04217D86068C0F381007E
:100A40000128F5D117E000BFFFF782FCC01BB042C0
:100A50000BD86068C0F381000228F5D10BE000BF1D
:100A6000FFF776FCC01BB04201D90320C0E76068E5
:100A700010F00C0FF4D12878400705D56068E968BC
:100A800020F4E060084360602878000706D56068BD
:100A9000296920F4605040EAC10060600020FFF73F
:100AA00014FF0020A4E700000010024000B500F091
:100AB0002DF808494968F02292FAA2F201F0F001FB
:100AC000B2FA82F2D140044A515CC840034908603E
:100AD00000BD000000100240981700080000002030
:100AE00000B5FFF7E3FF074949684FF4E06292FA67
:100AF000A2F201F4E061B2FA82F2D140024A515C02
:100B0000C84000BD001002409817000810B519A297
:100B100088B00FCA8DE80F001AA304AC0FCB84E88D
:100B20000F001C4B5A681C4802F00C0104291CD011
:100B300008291AD14FF4701494FAA4F402F4701135
:100B4000B4FA84F4E140D2031DF801100FD5DA6A3B
:100B50000F2393FAA3F302F00F02B3FA83F3DA4000
:100B600004AB9A5CB0FBF2F0484308B010BD0B48F0
:100B70004843FAE702030405060708090A0B0C0DAF
:100B80000E0F10100102030405060708090A0B0CDA
:100B90000D0E0F100010024000127A0000093D00F7
:100BA0002DE9F84F05460078FA4EC0074FF00104D2
:100BB00025D070686704C0F38100012807D07068F1
:100BC000C0F3810002281BD17068C00318D597FAC2
:100BD000A7F0B0FA80F040F02000400901D0306862
:100BE00000E0706A97FAA7F1B1FA81F101F01F01F4
:100BF00004FA01F1084202D06868002876D081E04A
:100C0000306820F480303060306820F4802030601C
:100C1000FFF79EFB804605E0FFF79AFBA0EB08007C
:100C200064287CD897FAA7F0B0FA80F040F0200052
:100C3000400901D0306800E0706A97FAA7F1B1FA74
:100C400081F101F01F0104FA01F10842E4D1686862
:100C5000B0F5803F0BD010B1B0F5A02F11D03068A7
:100C600020F480303060306820F4802002E030686A
:100C700040F480303060686820B3FFF769FB80463D
:100C80000AE0306840F480203060F0E7FFF760FB56
:100C9000A0EB08006428C4D897FAA7F0B0FA80F057
:100CA00040F02000400901D0306800E0706A97FAF7
:100CB000A7F1B1FA81F101F01F0104FA01F1084234
:100CC000E4D01FE0FFF744FB804605E0FFF740FB60
:100CD000A0EB08006428A4D897FAA7F0B0FA80F037
:100CE00040F02000400902D0306801E0B7E0706AAF
:100CF00097FAA7F1B1FA81F101F01F0104FA01F1AD
:100D00000842E3D12878DFF8908280074FF000098D
:100D10004FF002075AD5706810F00C0F00E07AE12E
:100D20004FF0F80B07D07068C0F3810002281BD188
:100D30007068C00318D497FAA7F0B0FA80F040F0BA
:100D40002000400901D0306800E0706A97FAA7F1EE
:100D5000B1FA81F101F01F0104FA01F108422AD031
:100D6000286901287BD126E0286980B394FAA4F091
:100D7000B0FA80F048F82040FFF7EAFA824605E032
:100D8000FFF7E6FAA0EB0A00642884D897FAA7F0E8
:100D9000B0FA80F040F02000400901D0306800E057
:100DA000706A97FAA7F1B1FA81F101F01F0104FA14
:100DB00001F10842E4D030689BFAABF26969B2FAFB
:100DC00082F220F0F80091400843306025E0FFE710
:100DD00094FAA4F1B1FA81F148F82190FFF7B8FA3A
:100DE000824605E0FFF7B4FAA0EB0A006428CCD8ED
:100DF00097FAA7F0B0FA80F040F02000400901D047
:100E0000306800E0706A97FAA7F1B1FA81F101F059
:100E10001F0104FA01F10842E4D1287800076ED5D9
:100E2000A869B8B394FAA4F0B0FA80F008EB800097
:100E3000C0F88044FFF78CFA824605E0FFF788FA95
:100E4000A0EB0A006428A0D897FAA7F0B0FA80F0C7
:100E500040F06000B4EB501F02D130680CE096E126
:100E600097FAA7F0B0FA80F040F06000B7EB501F9F
:100E700001D1306A00E0706A97FAA7F1B1FA81F106
:100E800001F01F0104FA01F21042D7D00120FFF750
:100E900075F934E0FFE794FAA4F1B1FA81F108EBB7
:100EA0008101C1F88094FFF753FA824606E000BF43
:100EB000FFF74EFAA0EB0A00642898D897FAA7F03B
:100EC000B0FA80F040F06000B4EB501F01D1306800
:100ED0000BE097FAA7F0B0FA80F040F06000B7EBB3
:100EE000501F01D1306A00E0706A97FAA7F1B1FA99
:100EF00081F101F01F0104FA01F21042D8D12878E3
:100F0000400770D5F06940F08050F061F069DFF87B
:100F10008CB000F080500090DBF8001041F480713C
:100F2000CBF80010FFF714FA824605E0FFF710FA3D
:100F3000A0EB0A0064286ED8DBF80000C005F5D5E8
:100F4000306A20F001003062306A20F00400306224
:100F5000FFF7FEF9834641F2883A05E0FFF7F8F91A
:100F6000A0EB0B01514556D897FAA7F0B0FA80F0E4
:100F700040F04000B4EB501F01D1306811E097FA07
:100F8000A7F0B0FA80F040F04000B7EB501F07D157
:100F9000306A06E00010024000004242007000404B
:100FA000706A97FAA7F1B1FA81F101F01F0104FA12
:100FB00001F10842D2D1E86801280AD008B1052819
:100FC00012D0306A20F001003062306A20F0040054
:100FD00002E0306A40F001003062E86898B3FFF741
:100FE000B7F983460CE05AE0306A40F00400306202
:100FF000EFE700BFFFF7ACF9A0EB0B0151450AD8B2
:1010000097FAA7F0B0FA80F040F04000B4EB501F20
:1010100002D130680CE09DE097FAA7F0B0FA80F0BA
:1010200040F04000B7EB501F01D1306A00E0706A19
:1010300097FAA7F1B1FA81F101F01F0204FA02F167
:101040000842D7D02BE0FFE7FFF782F9834605E09F
:10105000FFF77EF9A0EB0B0151457BD897FAA7F07B
:10106000B0FA80F040F04000B4EB501F01D130687E
:101070000BE097FAA7F0B0FA80F040F04000B7EB31
:10108000501F01D1306A00E0706A97FAA7F1B1FAF7
:1010900081F101F01F0204FA02F10842D8D1E86997
:1010A00080B37168C1F38101022970D04FF0807163
:1010B0004F000228484609D091FAA1F1B1FA81F116
:1010C00048F82100FFF744F9054669E0894691FA9E
:1010D000A1F1B1FA81F1C24648F82100FFF738F9D1
:1010E000804605E0FFF734F9A0EB0800642854D8E7
:1010F00097FAA7F0B0FA80F040F02000400902D043
:10110000306801E061E0706A97FAA7F1B1FA81F105
:1011100001F01F0104FA01F10842E3D1286AB0F599
:10112000803F05D1F06AA96820F00F000843F06203
:10113000D5E908010843716821F47411084370600F
:1011400099FAA9F0B0FA80F04AF82040FFF700F9C8
:10115000054606E021E000BFFFF7FAF8401B6428CF
:101160001BD897FAA7F0B0FA80F040F020004009B1
:1011700001D0306800E0706A97FAA7F1B1FA81F106
:1011800001F01F0104FA01F10842E5D01DE01EE064
:10119000FFF7DEF8401B642802D90320BDE8F88F72
:1011A00097FAA7F0B0FA80F040F02000400901D093
:1011B000306800E0706A97FAA7F1B1FA81F101F0A6
:1011C0001F0104FA01F10842E2D10020E6E7012004
:1011D000E4E74FF0E0210428086903D020F0040080
:1011E0000861704740F00400FAE7704710B5401EF0
:1011F000B0F1807F01D3012010BD4FF0E024606189
:101200000F21601700F0E2F90020A06107202061A3
:10121000002010BD10B5FFF7E8FF10BD0148FFF733
:101220009DB80000A40000200148FFF70FB900009E
:10123000A400002010B5428D0168032A03D0428D1E
:10124000022A0FD004E00A6822F480620A60016872
:101250000A69416A4B1C43620A70418D491E4185EF
:10126000002010BD0A6842F400720A6001684A68F2
:1012700022F440724A6001680A69416A4B1C436269
:101280000A70418D491E418501680A69416A4B1CFB
:1012900043620A70418D491E418590F83520012135
:1012A000422A80F8351002D0FFF70EFAD8E7FFF790
:1012B000C3FAD5E710B5428D0168032A08D90A6937
:1012C000416A4B1C43620A70418D491E418519E0F9
:1012D000022A19D0032A17D04A6822F4E0624A6031
:1012E00001680A69416A4B1C43620A70418D491EBC
:1012F000418590F835200121422A80F8351008D028
:10130000FFF7E2F9002010BD486820F480604860D3
:10131000F8E7FFF791FAF5E72DE9F843044600688E
:101320000D469146016841F48061016020680168C2
:1013300041F48071016013464FF0011700223946D5
:10134000204600F081F898BB206907F10108B0F54C
:10135000804F10D00620216800EAD51646F0F00034
:1013600008614A46F91D204600F0B3F838B1A06B79
:1013700004282CD01CE0E8B240F001001DE02168F8
:10138000E8B208614A464146204600F0A2F800282B
:10139000EDD12068416981690091016841F4807153
:1013A00001604B4600223946204600F04DF810B14E
:1013B0000320BDE8F88346F0F100216808614A4641
:1013C0004146204600F085F80028D0D1F1E7012001
:1013D000EFE7000070B5044600680D461646016848
:1013E00041F480710160134600224FF00111204644
:1013F00000F02AF898B92069B0F5804F11D0062086
:10140000216800EAD51040F0F000086132460D492D
:10141000204600F05EF838B1A06B042810D00320FD
:1014200070BD05F0FE0000E0E8B2216808610549E2
:101430003246891F204600F04CF80028ECD170BDE0
:10144000012070BD080001002DE9F05F1E469046A6
:101450000C460546FEF77CFF81464FF0000A4FF030
:10146000010BC4F30747B8F1000F09D024E0701C4A
:1014700006D0D6B1FEF76CFFA0EB0900B04214D83D
:101480002868012F06D0806924EA00000004000CBF
:101490001BD0ECE74069F7E7701C0DD02EB1FEF7CA
:1014A00057FFA0EB0900B04206D985F835B085F8A2
:1014B00034A00320BDE8F09F2868012F07D0806981
:1014C00024EA00000004000CE6D00020F2E74069A6
:1014D000F6E72DE9F04791460D460446FEF738FF42
:1014E000824600274FF00108C5F3074629E020682F
:1014F0004069C043400512D42068016841F400717E
:1015000001602068416921F4806141610420A06389
:1015100084F8358084F834700120BDE8F087B9F193
:10152000FF3F0ED0B9F1000F05D0FEF711FFA0EB81
:101530000A01494505D984F8358084F834700320C0
:10154000EBE72068012E06D0806925EA0000000440
:10155000000CE2D0CBE74069F7E700000D4808B582
:10156000816941F020018161816901F020010091D0
:10157000816941F004018161816901F004010091F8
:10158000816941F008018161806900F008000090E4
:1015900008BD0000001002400A4809493E220160CF
:1015A000094941600021C0E902124FF48042C0E9BC
:1015B0000421FF22C0E906210162FFF717B80000ED
:1015C00000540040A4000020A08601000907090E75
:1015D000002806DA00F00F0000F1E02080F8141D6A
:1015E000704700F1E02080F80014704710B5FFF755
:1015F00059F9BDE81040FFF70DBE70B590B0012558
:10160000280400240095CDE901040226CDE90760F5
:10161000800009906846FFF7C3FA0A95CDE90B648C
:101620000D9400210AA80E94FFF7BCF9FFF73EFACB
:101630004FF47A71B0FBF1F0FFF7D8FD0420FFF70B
:10164000C8FD00221146501EFFF77AF910B070BD98
:101650000E48016841F00101016041680C4A1140E7
:10166000416001680B4A11400160016821F480214A
:101670000160416821F4FE0141604FF41F01816067
:101680000021C1620449C003086070470010024095
:101690000000FFF8FFFFF6FE08ED00E002E008C8DA
:1016A000121F08C1002AFAD170477047002001E0DC
:1016B00001C1121F002AFBD170470000FFF7FAF8A2
:1016C000FFF79BFFFFF74AFFFFF766FF93252F4CBD
:1016D00041F2883734263846FEF750FD6580A580F4
:1016E00026700123294A3E212948FFF75BF800288C
:1016F000F7D12748FEF776FF0128FAD1234A0223C3
:10170000921C3E212248FFF74DF80028F6D12048D0
:10171000FEF768FF0128FAD11C4A9323921D3E214F
:101720001B48FFF73FF80028F6D11948FEF75AFF8B
:101730000128FAD1122020700123144A3E211448B6
:10174000FFF730F80028F7D11148FEF74BFF0128CA
:10175000FAD10E4A0223121D3E210D48FFF722F84E
:101760000028F6D10A48FEF73DFF0128FAD193235D
:10177000084A3E210648FEF7A9FF0028F7D1044891
:10178000FEF730FF0128FAD1A5E700000400002091
:10179000A4000020E000002000000000010203047B
:1017A0000102030406070809C8170008000000200A
:1017B000A40000009C1600086C180008A40000207B
:1017C000D4040000AC16000800366E0100000000D2
:1017D0000000202A2A2A2A4932435F54776F426F39
:1017E0006172647320636F6D6D756E696361746996
:1017F0006F6E206261736564206F6E2049542A2ADF
:101800002A2A20202A2A2A2A4932435F54776F4203
:101810006F6172647320636F6D6D756E696361745F
:10182000696F6E206261736564206F6E2049542A6F
:101830002A2A2A20202A2A2A2A4932435F54776FEB
:10184000426F6172647320636F6D6D756E69636161
:1018500074696F6E206261736564206F6E204954F5
:0C1860002A2A2A2A2000000000000000B4
:0400000508000121CD
:00000001FF
