:020000040800F2
:1000000050040020350100083D0100083F010008B0
:1000100041010008430100084501000800000000FC
:100020000000000000000000000000004701000880
:1000300049010008000000004B01000855140008A9
:100040004F0100084F0100084F0100084F01000850
:100050004F0100084F0100084F0100084F01000840
:100060004F0100084F0100084F0100084F01000830
:100070004F0100084F0100084F0100084F01000820
:100080004F0100084F0100084F0100080000000068
:100090000000000000000000000000004F01000808
:1000A0004F0100084F0100084F0100084F010008F0
:1000B0004F0100084F0100084F01000851110008CE
:1000C000451100084F0100084F0100084F010008CA
:1000D0004F0100084F0100084F0100084F010008C0
:1000E0004F0100084F0100084F0100080000000008
:1000F0000000000000000000000000000000000000
:1001000000000000000000000000000000000000EF
:1001100000000000000000004F0100084F0100082F
:10012000DFF80CD000F018F800480047251500084B
:10013000500400200648804706480047FEE7FEE7D7
:10014000FEE7FEE7FEE7FEE7FEE7FEE7FEE7FEE787
:10015000B914000821010008064C074D06E0E068CC
:1001600040F0010394E8070098471034AC42F6D3FE
:10017000FFF7DAFF84150008A415000831B500F078
:10018000E7F8044600F0E4F80099001B8842F9D330
:1001900038BD00002DE9F84FDFF890A100220AF1E8
:1001A000040B144601274FF00F090BF1040E00BF9A
:1001B0000B6807FA04F52B40AB4274D1DFF870C12D
:1001C0004E68A6EB0C0866452BD00DDC032E34D010
:1001D00005DC36B3012E19D0022E2FD11BE0112ED3
:1001E00016D0122E2AD119E0B8F5881F19D006DCD6
:1001F000B8F5803F15D0B8F5801F1FD111E0B8F5D4
:10020000001F0ED0B8F5041F18D10AE0CA6815E027
:10021000CA68121D12E0CA6808320FE0CA680C32C0
:100220000CE08A682AB1012A4FF0080203D0456128
:1002300004E0042202E0056100E00022FF2B01D867
:10024000064601E000F104064FEA840501D9A5F154
:100250002005D6F800C009FA05F82CEA080C02FAC5
:1002600005F54CEA050CC6F800C04D68ED0057D501
:10027000304DAE6946F00106AE61AD6924F003066B
:1002800005F0010500952C4D06EB050CDCF8085037
:10029000A6074FEA167809FA08F6B543274EB0428A
:1002A00002D1002610E03BE0254EB04201D10126EC
:1002B0000AE0244EB04201D1022605E0224EB042AF
:1002C00001D1032600E0042606FA08F62E43CCF8F6
:1002D00008604D68DAF80060ED03554601D51E430D
:1002E00000E09E432E604D68DBF80060AD035D4684
:1002F00001D51E4300E09E432E604D68DEF800608D
:10030000ED02754601D51E4300E09E432E604D6808
:10031000AD020E4D2E6801D51E4300E09E432E60B7
:10032000641C102CFFF444AFBDE8F88F00040140BA
:1003300000001110001002400000014000080140C0
:10034000000C014000100140001401400C04014069
:1003500001480068704700000C00002070B504469A
:10036000006841694268C1F30021C2F3002269B10B
:1003700062B1A16B41F00101A163416921F4807177
:1003800041612068016841F40041016020684169D1
:100390004268C1F34021C2F3002241B13AB1A16BDE
:1003A00041F00201A163416921F4007141612168BA
:1003B00048694A68C0F38020C2F30022012590B149
:1003C0008AB18869638D00F0010094F835201843E4
:1003D00001D1122A26D0A06B40F00400A063486926
:1003E00020F480604861206841694268C1F3C021FF
:1003F000C2F3002241B13AB1A16B41F00801A163FF
:10040000416921F400614161A06B002809D084F8A2
:1004100035502068016821F400610160204600F039
:10042000E0F870BD4A68204622F4E0624A60216824
:100430004A6922F480624A6121680A6822F4806273
:100440000A6084F8355000F0C0F9CCE7F8B50168CF
:100450008A69D243D3074FF0010213D04B69C3F32B
:1004600040064B684C69C3F34023C4F300158C6904
:10047000002EC4F3800467D0002B65D048698869DA
:100480000090F8BD8B69DB435B0742D44B69C3F333
:10049000C0144B68C3F380254B694E68C3F38003D7
:1004A000C6F340260CB105B163B1002BE9D0002E94
:1004B000E7D0438DC3B1416A4A1C426202680978A1
:1004C00011618AE0416A4A1C42620268097811613E
:1004D000418D491E4185418D0029D2D10068416876
:1004E00021F480614160F8BD4B6823F4E0634B6008
:1004F00001680B6843F400730B6090F8351080F8C6
:100500003520322902D000F0E0F8F8BD00F029F9DA
:10051000F8BD4A69C2F380134A68C2F380244A696D
:100520004968C2F38002C1F340210BB104B13AB172
:10053000002AEDD00029EBD0BDE8F84000F00EBE57
:10054000BDE8F84000F04ABEADB1A3B14B6823F45A
:10055000E0634B6001684B690B6843F001030B607B
:10056000009301680B6823F480630B6080F83520EA
:1005700000F02AF9F8BD4A69ACB1C2F3C0144A6868
:10058000C2F380234A694968C2F38002C1F3402163
:100590000CB103B11AB1002AECD00029EAD0418D88
:1005A000002988D1F8BDC2F380144A68C2F38025BF
:1005B0004A694B68C2F38002C3F340230CB105B112
:1005C0001AB1002AEED0002BECD0428D002AE9D0DF
:1005D0000A69416A4B1C43620A70418D491E41857C
:1005E000F8BD704790F835007047000070B5040002
:1005F00004D094F83500002510B106E0012070BD4C
:1006000084F83450204600F0ADF8022084F835001C
:100610002068016821F00101016000F0F5F9014650
:1006200027482268B1FBF0F05060264A6368934285
:1006300006D94FF4967358434FF47A73B0FBF3F036
:100640002368401C186260680123904208D840006B
:10065000B1FBF0F0C0F30B01042916D2042014E022
:10066000A26852B100EBC00202EB0010B1FBF0F047
:1006700040F44040010507D007E000EB4000B1FB2B
:10068000F0F040F40040F5E718462168C861D4E96D
:100690000701084321680860D4E903100843216872
:1006A0008860D4E9050108432168C86020680168B2
:1006B00041F001010160A56384F83530002070BD70
:1006C00040420F00A0860100704770472DE9F843B3
:1006D000044690F835001E461746884601283BD14F
:1006E0004FB146B142F2107301221C49204600F07E
:1006F000E1FD80BB02E00120BDE8F88394F83400FE
:10070000012829D0012084F834002068016821F4F0
:1007100000610160122084F835000025A56367623E
:100720002685668523224146204600F089FD30B1AA
:10073000A06B84F834500428DDD00320DCE7206867
:1007400041698169009184F83450416841F4E06165
:1007500041600020D0E7FFE70220CDE70200100053
:1007600070477047154900B5CA6985B042F4001258
:10077000CA61C96901F400110491006810498842F6
:1007800019D1C020009012200190032003906946E7
:100790000C48FFF7FFFC002201211F2000F064F845
:1007A0001F2000F055F800220221202000F05CF804
:1007B000202000F04DF805B000BD00000010024000
:1007C00000540040000C0140704770470248016827
:1007D000491C0160704700000C00002010B5032088
:1007E00000F062F8002000F004F800F013F8002098
:1007F00010BD10B5044600F0EDF84FF47A71B0FB6F
:10080000F1F000F087FC00222146501E00F02CF889
:10081000002010BD0C4808B5816941F001018161DB
:10082000806900F001000090032000F03DF80022F4
:100830001146501E00F018F80448416821F0E061AC
:1008400041F00071416008BD00100240000001400D
:1008500000F01F02012191404009800000F1E020DA
:10086000C0F8001170470000F0B40E4B1B680C4636
:10087000C3F30223C3F10705042D00D90425191D74
:10088000072901D2002300E0DB1E012606FA05F14C
:10089000491E214099409E40761E16403143F0BCCF
:1008A00000F0C8BD0CED00E0064900F00702086842
:1008B0004FF6FF03184040EA0220034A1043086045
:1008C000704700000CED00E00000FA052DE9F04152
:1008D000054600783E4C800705D56068A96820F081
:1008E000F000084360602878C00758D0696801208C
:1008F000012903D0022921D0022321E04FF4003343
:100900001EE000BF93FAA3F3B3FA83F303F01F03CF
:100910009840024202D10120BDE8F081606820F0D9
:10092000030008436060FFF713FD0746686841F263
:100930008836012815D002281FD02CE04FF0007314
:1009400093FAA3F2B2FA82F242F02002520901D0E5
:100950002268D7E7626AD5E7FFF7FAFCC01BB0420E
:1009600017D86068C0F381000128F5D117E000BFF7
:10097000FFF7EEFCC01BB0420BD86068C0F38100EB
:100980000228F5D10BE000BFFFF7E2FCC01BB0422C
:1009900001D90320C0E7606810F00C0FF4D128786B
:1009A000400705D56068E96820F4E06008436060AE
:1009B0002878000706D56068296920F4605040EA6D
:1009C000C10060600020FFF714FF0020A4E70000D2
:1009D0000010024000B500F02DF808494968F022E7
:1009E00092FAA2F201F0F001B2FA82F2D140044A86
:1009F000515CC8400349086000BD0000001002407F
:100A0000741500080000002000B5FFF7E3FF074958
:100A100049684FF4E06292FAA2F201F4E061B2FA9E
:100A200082F2D140024A515CC84000BD0010024031
:100A30007415000810B519A288B00FCA8DE80F0010
:100A40001AA304AC0FCB84E80F001C4B5A681C4857
:100A500002F00C0104291CD008291AD14FF470149B
:100A600094FAA4F402F47011B4FA84F4E140D203CD
:100A70001DF801100FD5DA6A0F2393FAA3F302F0E1
:100A80000F02B3FA83F3DA4004AB9A5CB0FBF2F0E6
:100A9000484308B010BD0B484843FAE70203040579
:100AA000060708090A0B0C0D0E0F101001020304B3
:100AB00005060708090A0B0C0D0E0F100010024066
:100AC00000127A0000093D002DE9F84F0546007834
:100AD000FA4EC0074FF0010425D070686704C0F3D8
:100AE0008100012807D07068C0F3810002281BD163
:100AF0007068C00318D597FAA7F0B0FA80F040F0FC
:100B00002000400901D0306800E0706A97FAA7F130
:100B1000B1FA81F101F01F0104FA01F1084202D09B
:100B20006868002876D081E0306820F4803030603A
:100B3000306820F480203060FFF70AFC804605E032
:100B4000FFF706FCA0EB080064287CD897FAA7F012
:100B5000B0FA80F040F02000400901D0306800E099
:100B6000706A97FAA7F1B1FA81F101F01F0104FA56
:100B700001F10842E4D16868B0F5803F0BD010B1B4
:100B8000B0F5A02F11D0306820F48030306030688C
:100B900020F4802002E0306840F4803030606868E3
:100BA00020B3FFF7D5FB80460AE0306840F4802090
:100BB0003060F0E7FFF7CCFBA0EB08006428C4D856
:100BC00097FAA7F0B0FA80F040F02000400901D079
:100BD000306800E0706A97FAA7F1B1FA81F101F08C
:100BE0001F0104FA01F10842E4D01FE0FFF7B0FB57
:100BF000804605E0FFF7ACFBA0EB08006428A4D812
:100C000097FAA7F0B0FA80F040F02000400902D037
:100C1000306801E0B7E0706A97FAA7F1B1FA81F1A4
:100C200001F01F0104FA01F10842E3D12878DFF84E
:100C3000908280074FF000094FF002075AD5706884
:100C400010F00C0F00E07AE14FF0F80B07D070685D
:100C5000C0F3810002281BD17068C00318D497FA32
:100C6000A7F0B0FA80F040F02000400901D03068D1
:100C700000E0706A97FAA7F1B1FA81F101F01F0163
:100C800004FA01F108422AD0286901287BD126E024
:100C9000286980B394FAA4F0B0FA80F048F82040B4
:100CA000FFF756FB824605E0FFF752FBA0EB0A0078
:100CB000642884D897FAA7F0B0FA80F040F02000BA
:100CC000400901D0306800E0706A97FAA7F1B1FAE4
:100CD00081F101F01F0104FA01F10842E4D030680B
:100CE0009BFAABF26969B2FA82F220F0F800914007
:100CF0000843306025E0FFE794FAA4F1B1FA81F1EE
:100D000048F82190FFF724FB824605E0FFF720FB1F
:100D1000A0EB0A006428CCD897FAA7F0B0FA80F0CC
:100D200040F02000400901D0306800E0706A97FA76
:100D3000A7F1B1FA81F101F01F0104FA01F10842B3
:100D4000E4D1287800076ED5A869B8B394FAA4F066
:100D5000B0FA80F008EB8000C0F88044FFF7F8FAA2
:100D6000824605E0FFF7F4FAA0EB0A006428A0D859
:100D700097FAA7F0B0FA80F040F06000B4EB501F93
:100D800002D130680CE096E197FAA7F0B0FA80F053
:100D900040F06000B7EB501F01D1306A00E0706A8C
:100DA00097FAA7F1B1FA81F101F01F0104FA01F2FB
:100DB0001042D7D00120FFF7E1F934E0FFE794FAC1
:100DC000A4F1B1FA81F108EB8101C1F88094FFF739
:100DD000BFFA824606E000BFFFF7BAFAA0EB0A00AE
:100DE000642898D897FAA7F0B0FA80F040F0600035
:100DF000B4EB501F01D130680BE097FAA7F0B0FABE
:100E000080F040F06000B7EB501F01D1306A00E085
:100E1000706A97FAA7F1B1FA81F101F01F0104FAA3
:100E200001F21042D8D12878400770D5F06940F01F
:100E30008050F061F069DFF88CB000F080500090D5
:100E4000DBF8001041F48071CBF80010FFF780FA56
:100E5000824605E0FFF77CFAA0EB0A0064286ED812
:100E6000DBF80000C005F5D5306A20F001003062E3
:100E7000306A20F004003062FFF76AFA834641F2DC
:100E8000883A05E0FFF764FAA0EB0B01514556D80C
:100E900097FAA7F0B0FA80F040F04000B4EB501F92
:100EA00001D1306811E097FAA7F0B0FA80F040F075
:100EB0004000B7EB501F07D1306A06E00010024037
:100EC0000000424200700040706A97FAA7F1B1FA40
:100ED00081F101F01F0104FA01F10842D2D1E86862
:100EE00001280AD008B1052812D0306A20F001008C
:100EF0003062306A20F0040002E0306A40F0010005
:100F00003062E86898B3FFF723FA83460CE05AE0B2
:100F1000306A40F004003062EFE700BFFFF718FAD4
:100F2000A0EB0B0151450AD897FAA7F0B0FA80F070
:100F300040F04000B4EB501F02D130680CE09DE05F
:100F400097FAA7F0B0FA80F040F04000B7EB501FDE
:100F500001D1306A00E0706A97FAA7F1B1FA81F125
:100F600001F01F0204FA02F10842D7D02BE0FFE79C
:100F7000FFF7EEF9834605E0FFF7EAF9A0EB0B0176
:100F800051457BD897FAA7F0B0FA80F040F04000C6
:100F9000B4EB501F01D130680BE097FAA7F0B0FA1C
:100FA00080F040F04000B7EB501F01D1306A00E004
:100FB000706A97FAA7F1B1FA81F101F01F0204FA01
:100FC00002F10842D8D1E86980B37168C1F38101A8
:100FD000022970D04FF080714F000228484609D096
:100FE00091FAA1F1B1FA81F148F82100FFF7B0F9C7
:100FF000054669E0894691FAA1F1B1FA81F1C2464C
:1010000048F82100FFF7A4F9804605E0FFF7A0F9B2
:10101000A0EB0800642854D897FAA7F0B0FA80F043
:1010200040F02000400902D0306801E061E0706AC1
:1010300097FAA7F1B1FA81F101F01F0104FA01F169
:101040000842E3D1286AB0F5803F05D1F06AA9686B
:1010500020F00F000843F062D5E9080108437168E9
:1010600021F474110843706099FAA9F0B0FA80F085
:101070004AF82040FFF76CF9054606E021E000BF82
:10108000FFF766F9401B64281BD897FAA7F0B0FA5F
:1010900080F040F02000400901D0306800E0706A24
:1010A00097FAA7F1B1FA81F101F01F0104FA01F1F9
:1010B0000842E5D01DE01EE0FFF74AF9401B642816
:1010C00002D90320BDE8F88F97FAA7F0B0FA80F0B4
:1010D00040F02000400901D0306800E0706A97FAC3
:1010E000A7F1B1FA81F101F01F0104FA01F1084200
:1010F000E2D10020E6E70120E4E74FF0E0210428F8
:10110000086903D020F004000861704740F0040033
:10111000FAE7704710B5401EB0F1807F01D301207F
:1011200010BD4FF0E02460610F21601700F082F9DC
:101130000020A06107202061002010BD10B5FFF73E
:10114000E8FF10BD0148FFF709B9000010000020BA
:101150000148FFF77BB900001000002010B5428D58
:101160000168032A03D0428D022A0FD004E00A68E6
:1011700022F480620A6001680A69416A4B1C43627A
:101180000A70418D491E4185002010BD0A6842F455
:1011900000720A6001684A6822F440724A6001687D
:1011A0000A69416A4B1C43620A70418D491E4185A0
:1011B00001680A69416A4B1C43620A70418D491EED
:1011C000418590F835200121422A80F8351002D05F
:1011D000FFF77AFAD8E7FFF7C3FAD5E710B5428DE3
:1011E0000168032A08D90A69416A4B1C43620A70E4
:1011F000418D491E418519E0022A19D0032A17D0D2
:101200004A6822F4E0624A6001680A69416A4B1C3C
:1012100043620A70418D491E418590F835200121B5
:10122000422A80F8351008D0FFF74EFA002010BD92
:10123000486820F480604860F8E7FFF791FAF5E726
:1012400070B5044600680D461646016841F4807189
:101250000160134600224FF00111204600F02AF8E9
:1012600098B92069B0F5804F11D00620216800EAB6
:10127000D51040F0F000086132460D49204600F0DC
:101280005EF838B1A06B042810D0032070BD05F0C3
:10129000FE0000E0E8B22168086105493246891F76
:1012A000204600F04CF80028ECD170BD012070BD44
:1012B000080001002DE9F05F1E4690460C460546E9
:1012C000FFF746F881464FF0000A4FF0010BC4F3D8
:1012D0000747B8F1000F09D024E0701C06D0D6B142
:1012E000FFF736F8A0EB0900B04214D82868012FA8
:1012F00006D0806924EA00000004000C1BD0ECE753
:101300004069F7E7701C0DD02EB1FFF721F8A0EB74
:101310000900B04206D985F835B085F834A003201D
:10132000BDE8F09F2868012F07D0806924EA0000FB
:101330000004000CE6D00020F2E74069F6E72DE952
:10134000F04791460D460446FFF702F88246002713
:101350004FF00108C5F3074629E020684069C04303
:10136000400512D42068016841F4007101602068D2
:10137000416921F4806141610420A06384F83580D3
:1013800084F834700120BDE8F087B9F1FF3F0ED03A
:10139000B9F1000F05D0FEF7DBFFA0EB0A014945CC
:1013A00005D984F8358084F834700320EBE7206891
:1013B000012E06D0806925EA00000004000CE2D06E
:1013C000CBE74069F7E700000D4808B5816941F0B7
:1013D00020018161816901F020010091816941F062
:1013E00004018161816901F004010091816941F08A
:1013F00008018161806900F00800009008BD0000CC
:101400000010024009480849022201600849416071
:101410000021C0E902125203C0E904218161C161C7
:101420000162FFF7E3B80000005400401000002004
:10143000A08601000907090E002806DA00F00F0057
:1014400000F1E02080F8141D704700F1E02080F8E2
:101450000014704710B5FFF7B9F9BDE81040FFF769
:101460006DBE70B590B00125280400240095CDE92B
:1014700001040226CDE90760800009906846FFF765
:1014800023FB0A95CDE90B640D9400210AA80E9464
:10149000FFF71CFAFFF79EFA4FF47A71B0FBF1F0F8
:1014A000FFF738FE0420FFF728FE00221146501EE9
:1014B000FFF7DAF910B070BD0E48016841F0010184
:1014C000016041680C4A1140416001680B4A1140BB
:1014D0000160016821F480210160416821F4FE016E
:1014E00041604FF41F0181600021C1620449C003C3
:1014F00008607047001002400000FFF8FFFFF6FE92
:1015000008ED00E002E008C8121F08C1002AFAD165
:1015100070477047002001E001C1121F002AFBD173
:1015200070470000FFF75AF9FFF79BFFFFF74CFFEA
:10153000FFF768FF0D4D93264FF47A776E80AE80EB
:1015400000242C700A48FFF74DF80128FAD13846DC
:10155000FEF714FE0123054A3E210548FFF7B6F8C1
:10156000641CE4B2642CECD3E8E700000400002023
:101570001000002000000000010203040102030427
:1015800006070809A415000800000020100000004C
:1015900004150008B41500081000002040040000E5
:1015A0001415000800366E01000000000000000065
:0415B0000000000037
:0400000508000121CD
:00000001FF
